:020000040800F2
:1000000000500020C5480008614500086945000807
:10001000714500087945000881450008000000008E
:1000200000000000000000000000000089450008FA
:100030009545000800000000A1450008AD450008F6
:100040000D4900080D4900080D4900080D49000838
:100050000D4900080D4900080D4900080D49000828
:100060000D4900080D4900080D490008BD4500086C
:100070000D4900080D4900080D4900080D49000808
:100080000D4900080D4900080D4900080D490008F8
:100090000D4900080D4900080D490008D145000828
:1000A0000D4900080D4900080D4900080D490008D8
:1000B0000D490008E94500080D4900080D490008F0
:1000C0000D4900080D4900080D4900080D490008B8
:1000D0000D4900080D4900080D4900080D490008A8
:1000E0000D4900080D4900080D49000800000000F6
:1000F0000000000000000000000000000000000000
:0C01000000000000000000005FF808F1A3
:1001100010B5054C237833B9044B13B10448AFF341
:1001200000800123237010BD0802002000000000A1
:10013000E89A000808B5034B1BB103490348AFF325
:10014000008008BD000000000C020020E89A0008B2
:10015000034613F8012B002AFBD1181A0138704707
:1001600081F0004102E000BF83F0004330B54FEA68
:1001700041044FEA430594EA050F08BF90EA020FD5
:100180001FBF54EA000C55EA020C7FEA645C7FEA68
:10019000655C00F0E2804FEA5454D4EB5555B8BF8B
:1001A0006D420CDD2C4480EA020281EA030382EAFC
:1001B000000083EA010180EA020281EA0303362D8E
:1001C00088BF30BD11F0004F4FEA01314FF4801C61
:1001D0004CEA113102D0404261EB410113F0004F73
:1001E0004FEA03334CEA133302D0524263EB43032A
:1001F00094EA050F00F0A780A4F10104D5F1200EC8
:100200000DDB02FA0EFC22FA05F2801841F1000122
:1002100003FA0EF2801843FA05F359410EE0A5F1F6
:1002200020050EF1200E012A03FA0EFC28BF4CF027
:10023000020C43FA05F3C01851EBE37101F00045DD
:1002400007D54FF0000EDCF1000C7EEB00006EEBEA
:100250000101B1F5801F1BD3B1F5001F0CD3490874
:100260005FEA30004FEA3C0C04F101044FEA4452CB
:1002700012F5800F80F09A80BCF1004F08BF5FEA52
:10028000500C50F1000041EB045141EA050130BD32
:100290005FEA4C0C404141EB0101013C28BFB1F544
:1002A000801FE9D291F0000F04BF01460020B1FA8F
:1002B00081F308BF2033A3F10B03B3F120020CDA62
:1002C0000C3208DD02F1140CC2F10C0201FA0CF040
:1002D00021FA02F10CE002F11402D8BFC2F1200CA5
:1002E00001FA02F120FA0CFCDCBF41EA0C0190405B
:1002F000E41AA2BF01EB0451294330BD6FEA0404A4
:100300001F3C1CDA0C340EDC04F11404C4F120028E
:1003100020FA04F001FA02F340EA030021FA04F3A0
:1003200045EA030130BDC4F10C04C4F1200220FAF7
:1003300002F001FA04F340EA0300294630BD21FA35
:1003400004F0294630BD94F0000F83F4801306BFFB
:1003500081F480110134013D4EE77FEA645C18BFEF
:100360007FEA655C29D094EA050F08BF90EA020F86
:1003700005D054EA000C04BF1946104630BD91EA7E
:10038000030F1EBF0021002030BD5FEA545C05D181
:100390004000494128BF41F0004130BD14F58004C0
:1003A0003CBF01F5801130BD01F0004545F0FE4134
:1003B00041F470014FF0000030BD7FEA645C1ABF69
:1003C000194610467FEA655C1CBF0B46024650EAA0
:1003D000013406BF52EA033591EA030F41F40021CC
:1003E00030BD00BF90F0000F04BF0021704730B552
:1003F0004FF4806404F132044FF000054FF0000127
:1004000050E700BF90F0000F04BF0021704730B5E7
:100410004FF4806404F1320410F0004548BF4042BC
:100420004FF000013EE700BF42004FEAE2014FEA11
:1004300031014FEA02701FBF12F07F4393F07F4FEC
:1004400081F06051704732F07F4208BF704793F0EF
:100450007F4F04BF41F40021704730B54FF4607402
:1004600001F0004521F000411CE700BF50EA010205
:1004700008BF704730B54FF000050AE050EA0102AE
:1004800008BF704730B511F0004502D5404261EB1E
:1004900041014FF4806404F132045FEA915C3FF45F
:1004A000D8AE4FF003025FEADC0C18BF03325FEAFC
:1004B000DC0C18BF033202EBDC02C2F1200300FAAD
:1004C00003FC20FA02F001FA03FE40EA0E0021FAD2
:1004D00002F11444BDE600BF70B54FF0FF0C4CF4C0
:1004E000E06C1CEA11541DBF1CEA135594EA0C0F72
:1004F00095EA0C0F00F0DEF82C4481EA030621EAAD
:100500004C5123EA4C5350EA013518BF52EA0335E7
:1005100041F4801143F4801338D0A0FB02CE4FF099
:100520000005E1FB02E506F00042E0FB03E54FF0C9
:100530000006E1FB03569CF0000F18BF4EF0010EC1
:10054000A4F1FF04B6F5007F64F5407404D25FEABD
:100550004E0E6D4146EB060642EAC62141EA555170
:100560004FEAC52040EA5E504FEACE2EB4F1FD0CB2
:1005700088BFBCF5E06F1ED8BEF1004F08BF5FEA30
:10058000500E50F1000041EB045170BD06F00046E2
:1005900046EA010140EA020081EA0301B4EB5C048F
:1005A000C2BFD4EB0C0541EA045170BD41F4801187
:1005B0004FF0000E013C00F3AB8014F1360FDEBFAC
:1005C000002001F0004170BDC4F10004203C35DA88
:1005D0000C341BDC04F11404C4F1200500FA05F30B
:1005E00020FA04F001FA05F240EA020001F00042AC
:1005F00021F0004110EBD37021FA04F642EB060122
:100600005EEA430E08BF20EAD37070BDC4F10C044B
:10061000C4F1200500FA04F320FA05F001FA04F20F
:1006200040EA020001F0004110EBD37041F10001FB
:100630005EEA430E08BF20EAD37070BDC4F1200506
:1006400000FA05F24EEA020E20FA04F301FA05F26E
:1006500043EA020321FA04F001F0004121FA04F216
:1006600020EA020000EBD3705EEA430E08BF20EAE6
:10067000D37070BD94F0000F0FD101F00046400020
:1006800041EB010111F4801F08BF013CF7D041EAA2
:10069000060195F0000F18BF704703F000465200A6
:1006A00043EB030313F4801F08BF013DF7D043EA77
:1006B0000603704794EA0C0F0CEA135518BF95EA2D
:1006C0000C0F0CD050EA410618BF52EA4306D1D1B4
:1006D00081EA030101F000414FF0000070BD50EAD3
:1006E000410606BF1046194652EA430619D094EA5D
:1006F0000C0F02D150EA013613D195EA0C0F05D147
:1007000052EA03361CBF104619460AD181EA03019A
:1007100001F0004141F0FE4141F470014FF0000052
:1007200070BD41F0FE4141F4780170BD70B54FF0ED
:10073000FF0C4CF4E06C1CEA11541DBF1CEA13556D
:1007400094EA0C0F95EA0C0F00F0A7F8A4EB05044F
:1007500081EA030E52EA03354FEA013100F0888046
:100760004FEA03334FF0805545EA131343EA12630F
:100770004FEA022245EA111545EA10654FEA0026C4
:100780000EF000419D4208BF964244F1FD0404F57D
:10079000407402D25B084FEA3202B61A65EB0305D9
:1007A0005B084FEA32024FF480104FF4002CB6EB96
:1007B000020E75EB030E22BFB61A754640EA0C0016
:1007C0005B084FEA3202B6EB020E75EB030E22BF56
:1007D000B61A754640EA5C005B084FEA3202B6EB97
:1007E000020E75EB030E22BFB61A754640EA9C0056
:1007F0005B084FEA3202B6EB020E75EB030E22BF26
:10080000B61A754640EADC0055EA060E18D04FEAE3
:10081000051545EA16754FEA06164FEAC30343EA83
:1008200052734FEAC2025FEA1C1CC0D111F4801F50
:100830000BD141EA00014FF000004FF0004CB6E749
:1008400011F4801F04BF01430020B4F1FD0C88BFE8
:10085000BCF5E06F3FF6AFAEB5EB030C04BFB6EBF3
:10086000020C5FEA500C50F1000041EB045170BDE6
:100870000EF0004E4EEA113114EB5C04C2BFD4EB13
:100880000C0541EA045170BD41F480114FF0000E97
:10089000013C90E645EA060E8DE60CEA135594EA13
:1008A0000C0F08BF95EA0C0F3FF43BAF94EA0C0F16
:1008B0000AD150EA01347FF434AF95EA0C0F7FF48B
:1008C00025AF104619462CE795EA0C0F06D152EADF
:1008D00003353FF4FDAE1046194622E750EA4106C3
:1008E00018BF52EA43067FF4C5AE50EA41047FF4D4
:1008F0000DAF52EA43057FF4EBAE12E74FF0FF3C39
:1009000006E000BF4FF0010C02E000BF4FF0010C09
:100910004DF804CD4FEA410C7FEA6C5C4FEA430C82
:1009200018BF7FEA6C5C1BD001B050EA410C0CBFD1
:1009300052EA430C91EA030F02BF90EA020F002033
:10094000704710F1000F91EA030F58BF994208BF9A
:1009500090422CBFD8176FEAE37040F00100704757
:100960004FEA410C7FEA6C5C02D150EA013C07D1AE
:100970004FEA430C7FEA6C5CD6D152EA033CD3D0F9
:100980005DF8040B704700BF8446104662468C46F3
:100990001946634600E000BF01B5FFF7B7FF002826
:1009A00048BF10F1000F01BD4DF808EDFFF7F4FF4F
:1009B0000CBF012000205DF808FB00BF4DF808EDDA
:1009C000FFF7EAFF34BF012000205DF808FB00BFFD
:1009D0004DF808EDFFF7E0FF94BF012000205DF81F
:1009E00008FB00BF4DF808EDFFF7CEFF94BF0120D4
:1009F00000205DF808FB00BF4DF808EDFFF7C4FFCD
:100A000034BF012000205DF808FB00BF4FEA410C15
:100A10007FEA6C5C02D150EA013C0AD14FEA430CF8
:100A20007FEA6C5C02D152EA033C02D14FF0000035
:100A300070474FF0010070474FEA410212F5001273
:100A400015D211D56FF47873B3EB625212D94FEA15
:100A5000C12343F0004343EA505311F0004F23FAFF
:100A600002F018BF404270474FF00000704750EA54
:100A7000013005D111F0004008BF6FF00040704711
:100A80004FF00000704700BF4FEA4102B2F1E0436F
:100A900024BFB3F5001CDCF1FE5C0DD901F0004C65
:100AA0004FEAC0024CEA5070B2F1004F40EB8300B5
:100AB00008BF20F00100704711F0804F21D113F1E1
:100AC0003872BCBF01F00040704741F480114FEA1A
:100AD0005252C2F11802C2F1200C10FA0CF320FAA3
:100AE00002F018BF40F001004FEAC1234FEAD323C0
:100AF00003FA0CFC40EA0C0023FA02F34FEA43032A
:100B0000CCE77FEA625307D150EA01331EBF4FF0B2
:100B1000FE4040F44000704701F0004040F0FE40CD
:100B200040F40000704700BF80F0004002E000BFCA
:100B300081F0004142001FBF5FEA410392EA030FC8
:100B40007FEA226C7FEA236C6AD04FEA1262D2EB12
:100B50001363C1BFD218414048404140B8BF5B4217
:100B6000192B88BF704710F0004F40F4000020F0B0
:100B70007F4018BF404211F0004F41F4000121F0C6
:100B80007F4118BF494292EA030F3FD0A2F1010210
:100B900041FA03FC10EB0C00C3F1200301FA03F14E
:100BA00000F0004302D5494260EB4000B0F5000F71
:100BB00013D3B0F1807F06D340084FEA310102F130
:100BC0000102FE2A51D2B1F1004F40EBC25008BFE2
:100BD00020F0010040EA03007047490040EB0000AC
:100BE000013A28BFB0F5000FEDD2B0FA80FCACF1AD
:100BF000080CB2EB0C0200FA0CF0AABF00EBC250DA
:100C000052421843BCBFD0401843704792F0000FC7
:100C100081F4000106BF80F400000132013BB5E71A
:100C20004FEA41037FEA226C18BF7FEA236C21D090
:100C300092EA030F04D092F0000F08BF08467047F5
:100C400090EA010F1CBF0020704712F07F4F04D1C3
:100C5000400028BF40F00040704712F100723CBFD6
:100C600000F50000704700F0004343F0FE4040F400
:100C7000000070477FEA226216BF08467FEA2363BE
:100C80000146420206BF5FEA412390EA010F40F4A9
:100C9000800070474FF0000304E000BF10F00043F5
:100CA00048BF40425FEA000C08BF704743F09643DC
:100CB00001464FF000001CE050EA010208BF7047F7
:100CC0004FF000030AE000BF50EA010208BF70477E
:100CD00011F0004302D5404261EB41015FEA010C93
:100CE00002BF84460146002043F0B64308BFA3F18B
:100CF0008053A3F50003BCFA8CF2083AA3EBC2536D
:100D000010DB01FA02FC634400FA02FCC2F120028B
:100D1000BCF1004F20FA02F243EB020008BF20F0C2
:100D20000100704702F1200201FA02FCC2F1200228
:100D300050EA4C0021FA02F243EB020008BF20EA1D
:100D4000DC7070474FF0FF0C1CEAD0521EBF1CEA4B
:100D5000D15392EA0C0F93EA0C0F6FD01A4480EA39
:100D6000010C400218BF5FEA41211ED04FF0006322
:100D700043EA501043EA5111A0FB01310CF000404E
:100D8000B1F5000F3EBF490041EAD3715B0040EA74
:100D9000010062F17F02FD2A1DD8B3F1004F40EB44
:100DA000C25008BF20F00100704790F0000F0CF017
:100DB000004C08BF49024CEA502040EA51207F3ADB
:100DC000C2BFD2F1FF0340EAC250704740F40000B6
:100DD0004FF00003013A5DDC12F1190FDCBF00F0A7
:100DE00000407047C2F10002410021FA02F1C2F155
:100DF000200200FA02FC5FEA310040F1000053EAF1
:100E00004C0308BF20EADC70704792F0000F00F03E
:100E1000004C02BF400010F4000F013AF9D040EA44
:100E20000C0093F0000F01F0004C02BF490011F4D8
:100E3000000F013BF9D041EA0C018FE70CEAD153D6
:100E400092EA0C0F18BF93EA0C0F0AD030F0004C56
:100E500018BF31F0004CD8D180EA010000F000400A
:100E6000704790F0000F17BF90F0004F084691F0C8
:100E7000000F91F0004F14D092EA0C0F01D1420202
:100E80000FD193EA0C0F03D14B0218BF084608D1CB
:100E900080EA010000F0004040F0FE4040F4000015
:100EA000704740F0FE4040F4400070474FF0FF0CA8
:100EB0001CEAD0521EBF1CEAD15392EA0C0F93EAEF
:100EC0000C0F69D0A2EB030280EA010C49024FEA41
:100ED000402037D04FF0805343EA111143EA1013FA
:100EE0000CF000408B4238BF5B0042F17D024FF4B2
:100EF000000C8B4224BF5B1A40EA0C00B3EB510F8D
:100F000024BFA3EB510340EA5C00B3EB910F24BF75
:100F1000A3EB910340EA9C00B3EBD10F24BFA3EBFA
:100F2000D10340EADC001B0118BF5FEA1C1CE0D1C2
:100F3000FD2A3FF650AF8B4240EBC25008BF20F075
:100F4000010070470CF0004C4CEA50207F32C2BFC9
:100F5000D2F1FF0340EAC250704740F400004FF066
:100F60000003013A37E792F0000F00F0004C02BF97
:100F7000400010F4000F013AF9D040EA0C0093F061
:100F8000000F01F0004C02BF490011F4000F013BBB
:100F9000F9D041EA0C0195E70CEAD15392EA0C0F23
:100FA00008D142027FF47DAF93EA0C0F7FF470AF5B
:100FB000084676E793EA0C0F04D14B023FF44CAF9E
:100FC00008466EE730F0004C18BF31F0004CCAD133
:100FD00030F000427FF45CAF31F000437FF43CAF6F
:100FE0005FE700BF80B584B000AF3B1D00221A60F0
:100FF0005A609A602E4B2F4A1A602D4B4FF4807224
:101000009A602B4B00221A73294B00221A75284B29
:101010004FF46022DA61264B00225A60244B0422EE
:101020001A61234803F0FAFC0346002B01D003F0B9
:101030005FFA00237B600123BB600323FB603B1D41
:1010400019461B4803F0BCFE0346002B01D003F0F9
:101050004FFA01237B600223BB603B1D19461448F5
:1010600003F0AEFE0346002B01D003F041FA022349
:101070007B600323BB603B1D19460D4803F0A0FEB7
:101080000346002B01D003F033FA03237B600423D3
:10109000BB603B1D1946064803F092FE0346002B39
:1010A00001D003F025FA00BF1037BD4680BD00BF58
:1010B000240200200024014080B588B000AF786091
:1010C00007F1100300221A605A609A60DA607B68A8
:1010D0001B68284A934249D1274B9B69264A43F40F
:1010E00000739361244B9B6903F40073FB60FB68FE
:1010F000214B9B69204A43F0040393611E4B9B697B
:1011000003F00403BB60BB680F233B6103237B61D7
:1011100007F110031946194804F0F6FB184B194A59
:101120001A60174B00225A60154B00229A60144B2C
:101130008022DA60124B4FF480721A61104B4FF428
:1011400080625A610E4B20229A610D4B0022DA61B7
:101150000B4804F0EBF90346002B01D003F0C8F96B
:101160007B68074A1A62064A7B68536200BF2037D1
:10117000BD4680BD0024014000100240000801402F
:10118000540200200800024080B582B000AF0C4B32
:101190005B690B4A43F001035361094B5B6903F040
:1011A00001037B607B68002200210B2004F087F99B
:1011B0000B2004F0A0F900BF0837BD4680BD00BF7A
:1011C0000010024080B588B000AF07F11003002284
:1011D0001A605A609A60DA60434B9B69424A43F056
:1011E00010039361404B9B6903F01003FB60FB68A5
:1011F0003D4B9B693C4A43F0200393613A4B9B690A
:1012000003F02003BB60BB68374B9B69364A43F051
:1012100008039361344B9B6903F008037B607B6890
:10122000314B9B69304A43F0040393612E4B9B6919
:1012300003F004033B603B6801224FF400512B484C
:1012400004F0E6FC01224FF40071294804F0E0FCB0
:1012500000224FF48061264804F0DAFC4FF400537A
:101260003B6111237B610023BB610223FB6107F11A
:10127000100319461D4804F047FB4FF490733B617F
:101280001C4B7B610123BB6107F110031946184811
:1012900004F03AFB4FF400733B6111237B610023A0
:1012A000BB610223FB6107F110031946104804F0EB
:1012B0002BFB4FF480633B6101237B610023BB6107
:1012C0000223FB6107F110031946094804F01CFBD7
:1012D00000220021172004F0F2F8172004F00BF987
:1012E00000BF2037BD4680BD001002400010014005
:1012F000000801400000211090B484B000AF044603
:10130000084611461A462346FB800346BB800B461F
:101310007B8013463B802A237B735F4B4FF4004254
:101320005A617B7B43F47F025B4B1A615A4B4FF44B
:1013300080525A61584B4FF480521A6100BF564B8D
:101340004FF400421A61FB881B0A9BB2DBB243F4E4
:101350007F02514B1A61504B4FF480525A614E4BF1
:101360004FF480521A61FB88DBB243F47F024A4B90
:101370001A61494B4FF480525A61474B4FF48052E7
:101380001A617B881B0A9BB2DBB243F47F02424B9B
:101390001A61414B4FF480525A613F4B4FF48052D7
:1013A0001A617B88DBB243F47F023B4B1A613A4BF4
:1013B0004FF480525A61384B4FF480521A612B23FC
:1013C000BB73354B4FF400425A61BB7B43F47F0241
:1013D000314B1A61304B4FF480525A612E4B4FF40F
:1013E00080521A6100BF2C4B4FF400421A61BB8837
:1013F0001B0A9BB2DBB243F47F02274B1A61264BD8
:101400004FF480525A61244B4FF480521A61BB88CA
:10141000DBB243F47F02204B1A611F4B4FF4805222
:101420005A611D4B4FF480521A613B881B0A9BB2D4
:10143000DBB243F47F02184B1A61174B4FF4805212
:101440005A61154B4FF480521A613B88DBB243F46A
:101450007F02114B1A61104B4FF480525A610E4BB0
:101460004FF480521A612C23FB730B4B4FF4004254
:101470005A61FB7B43F47F02074B1A61064B4FF422
:1014800080525A61044B4FF480521A6100BF00BF72
:101490001037BD4690BC7047000C014090B58BB032
:1014A00000AF0446084611461A462346FB80034611
:1014B000BB800B467B8013463B800023FB810023CF
:1014C000BB81BB6B9B88FB81BB6BDB88BB81FB88D3
:1014D000FB84BB88BB848023FB72002387F8233006
:1014E000BB6B1B68FB610023FB7600237B6143E041
:1014F00000233B6131E097F82330002B08D1FB69D2
:101500005A1CFA611B78FB76BB6B1B7A87F8233079
:1015100097F82330013B87F82330FA7EFB7A13409B
:10152000DBB2002B0AD097F83C30002B0CD03A8865
:10153000B98CFB8C184600F0FFFB05E07A88B98C6B
:10154000FB8C184600F0F8FBFB7E5B00FB76BB8C47
:101550000133BB843B6901333B61BB893A699A42E1
:10156000C9DBBB88BB84FB8C0133FB84002387F879
:1015700023307B6901337B61FB897A699A42B7DB4F
:1015800000BF00BF2C37BD4690BD000090B58BB0AA
:1015900002AFBA601A460346FB810B46BB81134675
:1015A000FB80FB89FB83BB89BB830023BB750023C6
:1015B0007B750023BB6100237B8200233B828DE08F
:1015C000BB681B780A2B0DD1FB89FB837B6B5B68A7
:1015D0005B68DA887B7D9BB213449AB2BB8B134461
:1015E000BB8378E0BB681B78092B0DD17B6B5B68F4
:1015F0005B68DB881A467B7D13449BB29B009AB2E2
:10160000FB8B1344FB8366E00023FB7514E07B6BCC
:101610005A68FB7DDB0013441B68BA68127893425A
:1016200007D17B6B5A68FB7DDB0013445B68BB61B1
:1016300007E0FB7D0133FB75FA7D7B6B1B689A42EB
:10164000E5DBBB69002B4FD0BB699B887B82BB6904
:10165000DB883B82274B1B881846BA8B398A7B7DF7
:101660000B441344984241DD234B1B881846FA8BE8
:10167000798ABB7D0B441344984209DCFB89FB83C8
:101680007B7D9AB23B8A13449AB2BB8B1344BB83D3
:1016900097F83830002B0BD03C8EFA88B98BF88B3A
:1016A00001230193BB6900932346FFF7F7FE0AE08D
:1016B0003C8EFA88B98BF88B00230193BB690093A9
:1016C0002346FFF7EBFEBB7D9AB27B8A13449AB2A6
:1016D000FB8B1344FB83BB680133BB60BB681B7887
:1016E000002B7FF46DAF02E000BF00E000BF2437A5
:1016F000BD4690BD020000200000002080B588B0EB
:1017000004AFBA601A460346FB810B46BB81134601
:10171000FB80FA88B989F88900230293BB69019399
:10172000002300931346BA68FFF730FF00BF10375D
:10173000BD4680BD80B588B004AFBA601A46034686
:10174000FB810B46BB811346FB80FA88B989F88977
:1017500001230293FB6901933B8B00931346BA6804
:10176000FFF714FF00BF1037BD4680BD80B485B0C1
:1017700000AF03463960FB803B689B09FB81FB8817
:101780001B0A9BB23B73FB88FB72974B4FF40042E2
:101790001A613B7B43F47F02934B1A61924B4FF4E7
:1017A00080525A61904B4FF480521A61FB7A43F495
:1017B0007F028D4B1A618C4B4FF480525A618A4BD9
:1017C0004FF480521A613B68013B3B603A7BFB7AE5
:1017D0009A4240F0DA8047E010237B733FE0824B6F
:1017E0004FF480525A61804B4FF480521A617E4B05
:1017F0004FF480525A617C4B4FF480521A617A4BFD
:101800004FF480525A61784B4FF480521A61764BF4
:101810004FF480525A61744B4FF480521A61724BEC
:101820004FF480525A61704B4FF480521A616E4BE4
:101830004FF480525A616C4B4FF480521A616A4BDC
:101840004FF480525A61684B4FF480521A61664BD4
:101850004FF480525A61644B4FF480521A617B7B83
:101860005A1E7A73002BBAD1FB895A1EFA81002BBB
:10187000B2D13B68DBB203F03F037B730FE05A4BFE
:101880004FF480525A61584B4FF480521A61564BB4
:101890004FF480525A61544B4FF480521A617B7B53
:1018A0005A1E7A73002BEAD199E010237B7367E00C
:1018B0003B7B43F47F024C4B1A614B4B4FF48052FD
:1018C0005A61494B4FF480521A61FB7A43F47F020C
:1018D000454B1A61444B4FF480525A61424B4FF4CE
:1018E00080521A613B7B43F47F023F4B1A613E4BAF
:1018F0004FF480525A613C4B4FF480521A61FB7A8C
:1019000043F47F02384B1A61374B4FF480525A61CF
:10191000354B4FF480521A613B7B43F47F02324BCC
:101920001A61314B4FF480525A612F4B4FF4805261
:101930001A61FB7A43F47F022B4B1A612A4B4FF456
:1019400080525A61284B4FF480521A613B7B43F41A
:101950007F02254B1A61244B4FF480525A61224B6F
:101960004FF480521A61FB7A43F47F021E4B1A61D6
:101970001D4B4FF480525A611B4B4FF480521A6139
:101980007B7B5A1E7A73002B92D1FB895A1EFA81F7
:10199000002B8AD13B68DBB203F03F037B7319E075
:1019A0003B7B43F47F02104B1A610F4B4FF4805284
:1019B0005A610D4B4FF480521A61FB7A43F47F0257
:1019C000094B1A61084B4FF480525A61064B4FF491
:1019D00080521A617B7B5A1E7A73002BE0D100BFC4
:1019E0001437BD4680BC7047000C014090B583B0F1
:1019F00000AF0446084611461A462346FB800346BC
:101A0000BB800B467B8013463B80234B1B88FA88A8
:101A10009A423DD2214B1B88BA889A4238D27B88A1
:101A2000002B35D03B88002B32D0FA887B881344BA
:101A3000194A1288934204DD174B1A88FB88D31A7F
:101A40007B80BA883B881344144A1288934204DD91
:101A5000124B1A88BB88D31A3B80FA887B881344C0
:101A60009BB2013B9CB2BA883B8813449BB2013BBA
:101A70009BB2B988F8882246FFF73EFC7B883A88FB
:101A800003FB02F23B8B11461846FFF76FFE00E0A6
:101A900000BF0C37BD4690BD0000002002000020B2
:101AA00090B583B000AF0446084611461A46234657
:101AB000FB800346BB800B467B8013463B80FA8845
:101AC0007B8813449BB2013B9CB2BA883B88134489
:101AD0009BB2013B9BB2B988F8882246FFF70CFC09
:101AE0007B883A8803FB02F23B8B11461846FFF7CE
:101AF0003DFE00BF0C37BD4690BD000080B582B0F2
:101B000000AF0346FB800E4B1B88013B9AB20D4B86
:101B10001B88013B9BB200210020FFF7EDFB084B27
:101B20001B881A46074B1B8803FB02F2FB881146F1
:101B30001846FFF71BFE00BF0837BD4680BD00BF3B
:101B4000000000200200002090B585B002AF0446DE
:101B5000084611461A462346FB800346BB800B46C7
:101B60007B8013463B80334B1B88FA889A425DD2B8
:101B7000314B1B88BA889A4258D27B88002B55D0AB
:101B80003B88002B52D0FA887B881344294A12885C
:101B9000934204DD274B1A88FB88D31A7B80BA88CE
:101BA0003B881344244A1288934204DD224B1A884E
:101BB000BB88D31A3B80FA887B8813449BB2013BD5
:101BC0009AB2B988F8883B8B0093012300F036F86D
:101BD000BA883B88134499B2FA887B8813449BB235
:101BE000013B9AB2F8883B8B0093012300F026F862
:101BF000BA883B8813449BB2013B9AB2B988F888F3
:101C00003B8B0093012300F058F8FA887B8813443B
:101C100098B2BA883B8813449BB2013B9AB2B98808
:101C20003B8B0093012300F048F800E000BF0C3725
:101C3000BD4690BD000000200200002090B583B09A
:101C400000AF0446084611461A462346FB80034669
:101C5000BB800B467B8013467B70FA887B889A4258
:101C60000CD27B789AB2BB8813449BB2013B9BB2E7
:101C70007A88B988F888FFF73FFB0BE07B789AB247
:101C8000BB8813449BB2013B9BB2FA88B988788821
:101C9000FFF732FB7B787988FA888A1A0132002AAA
:101CA000B8BF524203FB02F23B8B11461846FFF7C6
:101CB0005DFD00BF0C37BD4690BD90B583B000AF51
:101CC0000446084611461A462346FB800346BB805D
:101CD0000B467B8013467B70BA887B889A420CD275
:101CE0007B789AB2FB8813449BB2013B9AB27B8803
:101CF000B988F888FFF700FB0BE07B789AB2FB8885
:101D000013449BB2013B9AB2BB887988F888FFF7ED
:101D1000F3FA7B787988BA888A1A0132002AB8BF28
:101D2000524203FB02F23B8B11461846FFF71EFDA1
:101D300000BF0C37BD4690BD80B582B000AF0346F2
:101D4000FB800B46BB8013467B80BB88FA88B98832
:101D5000F888FFF7D1FA134B4FF400421A617B88E1
:101D60001B0A9BB2DBB243F47F020E4B1A610D4B90
:101D70004FF480525A610B4B4FF480521A617B88AA
:101D8000DBB243F47F02074B1A61064B4FF48052DB
:101D90005A61044B4FF480521A6100BF0837BD46A8
:101DA00080BD00BF000C014080B487B000AF034687
:101DB000FB714FF4A073FB82F023BB82FB79032BF2
:101DC00000F2C88001A252F823F000BFDD1D000818
:101DD0003B1E0008991E0008F71E00083623BB743E
:101DE0005F4B4FF400425A61BB7C43F47F025C4B73
:101DF0001A615B4B4FF480525A61594B4FF4805239
:101E00001A6100BF4823FB74554B4FF400421A611E
:101E1000FB7C43F47F02524B1A61514B4FF48052CA
:101E20005A614F4B4FF480521A6100BF4D4AFB8AF2
:101E300013804D4ABB8A13808CE036233B74484B99
:101E40004FF400425A613B7C43F47F02444B1A61D9
:101E5000434B4FF480525A61414B4FF480521A6108
:101E600000BF28237B743E4B4FF400421A617B7CF9
:101E700043F47F023A4B1A61394B4FF480525A6156
:101E8000374B4FF480521A6100BF364ABB8A138029
:101E9000354AFB8A13805DE03623BB73304B4FF429
:101EA00000425A61BB7B43F47F022D4B1A612C4BDD
:101EB0004FF480525A612A4B4FF480521A6100BF8E
:101EC0008823FB73264B4FF400421A61FB7B43F4DB
:101ED0007F02234B1A61224B4FF480525A61204BF0
:101EE0004FF480521A6100BF1E4AFB8A13801E4ABB
:101EF000BB8A13802EE036233B73194B4FF400420C
:101F00005A613B7B43F47F02154B1A61144B4FF42B
:101F100080525A61124B4FF480521A6100BFE8237D
:101F20007B730F4B4FF400421A617B7B43F47F02BB
:101F30000B4B1A610A4B4FF480525A61084B4FF415
:101F400080521A6100BF074ABB8A1380064AFB8A87
:101F5000138000BF00BF1C37BD4680BC704700BF68
:101F6000000C0140020000200000002080B58CB071
:101F700000AF3B4600221A605A609A60DA60FF2385
:101F80003B6001237B600023BB600323FB603B4677
:101F90001946B14803F0B8FC4FF471433B6001238C
:101FA0007B600023BB600323FB603B461946AA48C5
:101FB00003F0AAFCA84B4FF400521A61A64B4FF451
:101FC00080521A61A44B4FF480425A61A24B4FF4E5
:101FD00080721A61A04B4FF480725A619E4B4FF48D
:101FE00080721A610A2002F0F5FC0123FB749A4BFF
:101FF0004FF400421A61FB7C43F47F02964B1A6156
:10200000954B4FF480525A61934B4FF480521A61B2
:1020100000BF0A2002F0DEFC28233B758E4B4FF4F4
:1020200000421A613B7D43F47F028B4B1A618A4B5D
:102030004FF480525A61884B4FF480521A6100BFAE
:10204000C0237B75844B4FF400425A617B7D43F47F
:102050007F02814B1A61804B4FF480525A617E4B54
:102060004FF480521A6100BF2323BB757A4B4FF4A3
:1020700000421A61BB7D43F47F02774B1A61764BB5
:102080004FF480525A61744B4FF480521A6100BF72
:10209000C123FB75704B4FF400425A61FB7D43F442
:1020A0007F026D4B1A616C4B4FF480525A616A4B40
:1020B0004FF480521A6100BF10233B76664B4FF4F9
:1020C00000421A613B7E43F47F02634B1A61624B0C
:1020D0004FF480525A61604B4FF480521A6100BF36
:1020E000C5237B765C4B4FF400425A617B7E43F400
:1020F0007F02594B1A61584B4FF480525A61564B2C
:102100004FF480521A6100BF42F62B337B83524B4F
:102110004FF400421A617B8B1B0A9BB2DBB243F483
:102120007F024D4B1A614C4B4FF480525A614A4B1F
:102130004FF480521A617B8BDBB243F47F02464B33
:102140001A61454B4FF480525A61434B4FF4805211
:102150001A6100BFC7237B773F4B4FF400425A619F
:102160007B7F43F47F023C4B1A613B4B4FF4805220
:102170005A61394B4FF480521A6100BFC023BB77BC
:10218000354B4FF400421A61BB7F43F47F02324B60
:102190001A61314B4FF480525A612F4B4FF48052E9
:1021A0001A6100BF3623FB772B4B4FF400425A6174
:1021B000FB7F43F47F02284B1A61274B4FF4805278
:1021C0005A61254B4FF480521A6100BF882387F86B
:1021D0002030214B4FF400421A6197F8203043F42D
:1021E0007F021D4B1A611C4B4FF480525A611A4BEF
:1021F0004FF480521A6100BF3A2387F82130164B02
:102200004FF400425A6197F8213043F47F02124B99
:102210001A61114B4FF480525A610F4B4FF48052A8
:102220001A6100BF552387F822300B4B4FF4004250
:102230001A6197F8223043F47F02074B1A61064B6C
:102240004FF480525A61044B4FF480521A6100BF20
:10225000B12387F8233001E0000C01407D4B4FF49F
:1022600000425A6197F8233043F47F02794B1A6198
:10227000784B4FF480525A61764B4FF480521A617A
:1022800000BF1B23BB84734B4FF400421A61BB8C0D
:102290001B0A9BB2DBB243F47F026E4B1A616D4B9B
:1022A0004FF480525A616B4B4FF480521A61BB8CD1
:1022B000DBB243F47F02674B1A61664B4FF48052E6
:1022C0005A61644B4FF480521A6100BFB72387F8FC
:1022D0002730604B4FF400425A6197F8273043F49F
:1022E0007F025C4B1A615B4B4FF480525A61594B31
:1022F0004FF480521A6100BF072387F82830554BEE
:102300004FF400421A6197F8283043F47F02514B92
:102310001A61504B4FF480525A614E4B4FF4805229
:102320001A6100BFB62387F829304A4B4FF40042A8
:102330005A6197F8293043F47F02464B1A61454BA6
:102340004FF480525A61434B4FF480521A6100BFE0
:1023500040F682237B853F4B4FF400421A617B8D10
:102360001B0A9BB2DBB243F47F023A4B1A61394B32
:102370004FF480525A61374B4FF480521A617B8D73
:10238000DBB243F47F02334B1A61324B4FF480527D
:102390005A61304B4FF480521A6100BF4FF41C5306
:1023A000BB852C4B4FF400421A61BB8D1B0A9BB2BC
:1023B000DBB243F47F02274B1A61264B4FF4805265
:1023C0005A61244B4FF480521A61BB8DDBB243F447
:1023D0007F02204B1A611F4B4FF480525A611D4BF4
:1023E0004FF480521A6100BF112387F82E30194B29
:1023F0004FF400425A6197F82E3043F47F02154B98
:102400001A61144B4FF480525A61124B4FF48052B0
:102410001A6100BF322002F0DDFA292387F82F303D
:102420000C4B4FF400425A6197F82F3043F47F026F
:10243000084B1A61074B4FF480525A61054B4FF419
:1024400080521A6100BF642002F0C4FA00BF303726
:10245000BD4680BD000C014080B500AF02F058FAC7
:1024600000F068F9FEF7AEFEFEF78EFEFEF7BAFD4D
:1024700002F08EF9FFF77AFD0120FFF795FC844802
:1024800002F098FE3C21834804F0FCF9824B4F2275
:102490001A70824B00221A70814B00221A70814BF5
:1024A00000221A80804B00221A80804B00221A7072
:1024B0007F4B00221A707F4B00221A707E4B002245
:1024C0001A707E4B00221A707D4B00221A707D4BD1
:1024D00000221A707C4B00221A707C4B01221A7069
:1024E0007B4B02221A707A4B1B781A46794B33F8D1
:1024F0001220794B1A80794B00221A80784B0022E7
:102500001A70784B00221A70774B00221A70774BA2
:1025100000221A70764B00221A70764B00221A7035
:10252000754B01221A70754B00221A70744B0022F1
:102530001A70744B00221A80734B00221A8000F02C
:1025400045FA00F021FB00F0A7FC00F0FFFB584B20
:102550001B780121184600F0E5FA6C4B1B78002B24
:1025600020D06B4B1B78002B0AD06A4B9B6803F47E
:102570008073002B0CBF01230023DAB2664B1A7064
:10258000664B1B78002B0AD0624B9B6803F020033C
:10259000002B0CBF01230023DAB2614B1A705B4B96
:1025A00000221A705C4B1B78002B24D0534B1B78F5
:1025B000002B14BF01230023DBB283F00103DBB245
:1025C00003F00103DAB24D4B1A704D4B01221A7021
:1025D0004A4B1B78002B04D0524B4FF400525A61E7
:1025E00003E0504B4FF400521A61494B00221A701D
:1025F000494B00221A704A4B1B78002B07D14A4BDB
:102600001B78002B03D1494B1B78002B1ED03C4B71
:1026100001221A70354B1B7883F00103DBB2002BCB
:1026200008D0334B1B7883F00103DBB2002B01D0C1
:1026300001F008FB2D4B1B78002B01D001F01AFC98
:102640002B4B1B78002B01D001F0A0FC2B4B1B78EF
:10265000002B82D0104B1B7803F00F03002B05D00A
:102660001F4B1B78002B01D001F016FE1D4B1B7871
:102670001A462F4B9A5C094B1B789A42BFF46DAFF8
:10268000064B00221A7000F07FFA00F0EBFF64E7BF
:10269000240200203006002098020020F8050020C7
:1026A000F905002004060020060600202806002068
:1026B000F0050020F1050020F2050020F3050020C0
:1026C0001A060020F6050020F7050020220600204B
:1026D000FC0500201C000020080600200A0600203F
:1026E00025060020FD05002001060020230600200D
:1026F00024060020FE0500202606002020060020DB
:1027000021060020140600201606002027060020BF
:102710001E060020000801401F0600201C060020A5
:102720001D06002000100140180600201906002098
:102730000400002080B594B000AF07F128032822E0
:102740000021184605F0F9F807F1140300221A6079
:102750005A609A60DA601A613B1D00221A605A6062
:102760009A60DA600123BB624FF48033FB6200237E
:102770003B630123BB6302237B644FF48033BB6460
:102780004FF4E013FB6407F12803184603F070FAD6
:102790000346002B01D001F0ABFE0F237B61022327
:1027A000BB610023FB614FF480633B6200237B62CB
:1027B00007F114030221184603F0DCFC0346002B4A
:1027C00001D001F095FE02237B604FF40043FB60D3
:1027D0003B1D184603F048FE0346002B01D001F0D4
:1027E00087FE00BF5037BD4680BD000080B483B077
:1027F00000AF0346FB80FB88202B13D1174B1B78BF
:10280000002B26D0164B00221A70164B00221A708D
:10281000124B00221A70144B00221A70134B012223
:102820001A7016E0FB88B3F5807F12D10B4B1B7832
:10283000002B0ED00A4B00221A700A4B00221A708D
:10284000064B00221A70084B00221A70084B012216
:102850001A7000BF0C37BD4680BC704726060020AA
:10286000FE050020FF050020270600201C06002092
:102870001E06002080B483B000AF164B1B685B6A55
:102880007B607B681BB2002B00DA03339B101AB20B
:10289000114B1A80104BB3F90020104BB3F90030E4
:1028A0009A4202DA0E4B01221A700B4BB3F9002048
:1028B0000A4BB3F900309A4202DD0A4B01221A702A
:1028C000054BB3F90020054B1A8000BF0C37BD46FD
:1028D00080BC704730060020140600201606002039
:1028E000190600201806002080B400AF2C4B1B886E
:1028F00001339AB22A4B1A802A4B1B780133DAB281
:10290000284B1A70284B1B780133DAB2264B1A7009
:10291000234B1A88254B1B889A4205D3244B01224E
:102920001A701F4B00221A801E4B1B78632B05D98F
:10293000204B01221A701B4B00221A701A4B1B7875
:102940003B2B05D91C4B01221A70174B00221A7021
:102950001A4B1B78002B18D0194B1B780133DAB2B5
:10296000174B1A70174BDB68164A83F48063D360E9
:10297000134B1A78144B1B789A420CD90F4B002238
:102980001A700F4B00221A7005E00E4BDB680D4ADF
:1029900023F48063D36000BFBD4680BC704700BF96
:1029A0000A060020FE050020FF0500200806002082
:1029B00025060020260600202706002021060020EC
:1029C00000060020000801401300002080B584B0FC
:1029D00002AF0023FB8000237B800020FFF78EF8EE
:1029E0004FF6205300939623C42200210020FFF7C6
:1029F000ABF800237B7132E07B799BB21A46D200A0
:102A00001A44520013445B007B8079884FF62053B0
:102A1000009324237922C620FFF796F87B8803339E
:102A20007B807B79394A32F81330798800931E23F2
:102A30000422C920FFF734F87B8803337B807B793D
:102A4000324A32F813307988314A019200220092DA
:102A5000304AE620FEF76EFE7B7901337B717B798D
:102A6000032BC9D94FF6205300935823792298217C
:102A7000C620FFF769F800233B7107E03B7900218E
:102A8000184600F031FC3B7901333B713B79042B54
:102A9000F4D9F8884FF6205300931223412298214D
:102AA000FEF7A4FFFB884233FB80FB88842BF0D920
:102AB0004FF6205300930123EF22AA214120FFF774
:102AC000FCF84FF6205300930123EF22AA21832024
:102AD000FFF7F3F80E4B009300230F4A97210F20C6
:102AE000FEF70CFE0A4B009300230C4A972152205C
:102AF000FEF704FE064B00930023094A972193201A
:102B0000FEF7FCFD00BF0837BD4680BD2400002055
:102B10005CA90008009B0008089B0008109B0008A7
:102B2000189B000880B586B002AF03460A46FB71C9
:102B30001346BB71BB79002B02D01F23FB8102E03F
:102B40004FF62053FB81FB79032B11D8FB799BB205
:102B50001A46D2001A44520013445B00BB81B98963
:102B6000FB89009324237922C620FEF7EDFF07E0BE
:102B7000FB890093582379229821C620FEF7E4FFB1
:102B800000BF1037BD4680BD80B584B002AF0023C2
:102B900000939423A52202211E20FEF781FF00232B
:102BA000FB8027E0FB881A46920013449B009BB2EF
:102BB0001333BB80FB881A46920013449B009BB2E0
:102BC00020337B80FB88062B08D8B98847F6E03392
:102BD00000930123C3221E20FFF730F8788847F6C0
:102BE000E0330093012394220321FFF766F8FB886A
:102BF0000133FB80FB88082BD4D900BF00BF083706
:102C0000BD4680BD80B582B000AF03460A46FB7169
:102C10001346BB71FB79042B25D801A252F823F08F
:102C2000352C00083F2C0008492C0008532C0008C4
:102C30005D2C0008BB79184600F00AFA13E0BB7956
:102C4000184600F049FA0EE0BB79184600F098FAF1
:102C500009E0BB79184600F0D7FA04E0BB791846C2
:102C600000F016FB00BF00BF0837BD4680BD00BFA7
:102C700080B582B000AF03460A46FB711346BB71B4
:102C8000294B00221A70FFF77FFFBA79FB791146B2
:102C90001846FFF7B7FFFB79042B41D801A252F881
:102CA00023F000BFB92C0008D72C0008F12C000835
:102CB000032D00080B2D0008BB7903F00303D9B2E4
:102CC0001A4A137861F305131370174B00221A7018
:102CD00000F0E2F824E0164ABB791370BB79154A7C
:102CE00032F81320144B1A80144B00221A8017E07C
:102CF000134ABB791370FFF747FF0B4B00221A7082
:102D00000EE0104ABB7913700AE0BB79002B14BFA8
:102D100001230023DAB20C4B1A7000F0A3FC00BFB1
:102D200000BF0837BD4680BDF8050020980200208E
:102D3000FC0500201C000020080600200A060020D8
:102D4000FD050020010600202206002080B500AF0E
:102D50000A4B1B78184600F0BFF9094B1B78184640
:102D600000F00EFA074B1B78184600F04DFA064BA0
:102D70001B78184600F08CFA00BF80BDFC050020CF
:102D8000FD050020010600202206002080B483B04B
:102D900000AF3C4B1B78FB713B4B1B78BB713B4B33
:102DA0001B8840F28472934202D8374B00221A707B
:102DB000364B1B8840F28472934202D9324B012277
:102DC0001A70324B1B88B3F5426F02D32E4B02228E
:102DD0001A702F4B1B8840F24572934202D9294B3F
:102DE00002221A702A4B1B8840F24572934202D885
:102DF000244B01221A70264B1B88B3F59B6F02D817
:102E0000204B00221A701F4B1B78002B06D11E4B43
:102E10001B78012B02D11C4B02221A70194B1B7814
:102E2000012B06D1184B1B78002B02D1164B012227
:102E30001A70144B1B78012B06D1134B1B78022BF5
:102E400002D1104B00221A700E4B1B78022B06D1B8
:102E50000D4B1B78012B02D80A4B01221A70094B2B
:102E60001B78FA799A4204D8074B1B78BA799A42B0
:102E700002D2084B01221A7000BF0C37BD4680BC3D
:102E8000704700BF02060020170000200606002041
:102E9000040600202806002080B588B002AF5E4BF3
:102EA0001B781A465D4B9B5CFB745D4B1B781A4686
:102EB0005C4B9A5CFB7CD31ABB7400230093932376
:102EC0001A2203210320FEF7EBFD3B1D25221A8069
:102ED000554B1B78C3F30113DBB2022B24D0022B1A
:102EE00030DC002B02D0012B10D02BE03B1D18460C
:102EF000FDF72EF903461A463B1D13444B4A118831
:102F0000927819809A700123FB751BE03B1D1846CF
:102F1000FDF71EF903461A463B1D1344444A106848
:102F200018600A23FB750DE03B1D1846FDF710F9EC
:102F300003461A463B1D13443E4A1068186064233A
:102F4000FB7500BF3B1D1846FDF702F903461A4604
:102F50003B1D134438491A460B461B881380002337
:102F6000BB8250E0BB8ADBB21A46920013449B003E
:102F7000DBB20A337B74BB8ADBB2C3F106033B745A
:102F8000FB7DFA7C02FB03F31846FDF787FE034640
:102F90002A491846FDF78AFF03461A46284B1A604D
:102FA000FB7D3A7C02FB03F3BA7C02FB03F3184679
:102FB000FDF774FE034623491846FDF777FF0346E5
:102FC0001A461F4B1B6819461046FDF7B3FD034612
:102FD0001A461B4B1A601A4B1B681846FDF724FA59
:102FE00002460B46391D184804F042FC7B7C99B21E
:102FF000164B00934FF62053134A0320FEF77EFB37
:10300000BB8A0133BB82BB8A062BABD900BF00BF92
:103010001837BD4680BD00BF020600201800002002
:10302000170000201400002098020020209B0008B8
:10303000249B0008289B00082C9B000800002041CE
:10304000EC05002000007042DC050020E8AC000820
:1030500080B586B002AF0346FB71FB79022B18D016
:10306000022B1FDC002B02D0012B09D01AE007F144
:103070000803154A92E8030018600433197011E040
:1030800007F10803114A92E803001860043319702D
:1030900008E007F108030E4A92E8030018600433C1
:1030A000197000BF07F108020A4B01930023009337
:1030B0004FF6FF73992140F21310FEF73BFB00BF60
:1030C0001037BD4680BD00BF309B0008389B00080C
:1030D000409B00085CA9000880B586B002AF03469B
:1030E000FB71FB79032B2FD801A252F823F000BF0C
:1030F000013100081331000825310008373100087C
:1031000007F10803194A92E8030018600433198094
:103110001AE007F10803164A92E803001860043326
:10312000198011E007F10803124A92E803001860C1
:103130000433198008E007F108030F4A92E80300FE
:1031400018600433198000BF07F108020B4B01938C
:10315000002300934FF6FF73AA2140F21310FEF7ED
:10316000E9FA00BF1037BD4680BD00BF489B00088C
:10317000509B0008589B0008609B00085CA9000851
:1031800080B586B002AF0346FB71FB79022B18D0E5
:10319000022B1FDC002B02D0012B09D01AE007F113
:1031A0000803154A92E8030018600433198011E0FF
:1031B00007F10803114A92E80300186004331980EC
:1031C00008E007F108030E4A92E803001860043390
:1031D000198000BF07F108020A4B019300230093F6
:1031E0004FF6FF73BA2140F21310FEF7A3FA00BFA7
:1031F0001037BD4680BD00BF689B0008709B00086B
:10320000789B00085CA9000880B586B002AF034631
:10321000FB71FB79022B18D0022B1FDC002B02D094
:10322000012B09D01AE007F10803154A92E80300C0
:1032300018600433198011E007F10803114A92E87D
:10324000030018600433198008E007F108030E4AF0
:1032500092E8030018600433198000BF07F10802E8
:103260000A4B0193002300934FF6FF73CA2140F2EB
:103270001310FEF75FFA00BF1037BD4680BD00BFD8
:10328000809B0008889B0008909B00085CA90008B0
:1032900080B586B002AF0346FB71FB79002B02D0EC
:1032A000012B05D009E007F108030C4A1A6004E07D
:1032B00007F108030A4A1A6000BF07F10802094B28
:1032C0000193002300934FF6FF73DA2140F21310AD
:1032D000FEF730FA00BF1037BD4680BD204E4F00CC
:1032E000205349005CA9000880B588B002AF0346AE
:1032F0000A46FB711346BB71BB79022B0DD0022B22
:103300000FDC002B02D0012B04D00AE04FF6205333
:10331000FB8206E01F23FB8203E040F2FF73FB8287
:1033200000BFFB79042B30D801A252F823F000BF74
:103330004533000853330008613300086F33000839
:103340007D33000807F108031A4A07CA03C31A703D
:103350001BE007F10803184A07CA03C31A7014E0F8
:1033600007F10803154A07CA03C31A700DE007F1F5
:103370000803134A07CA03C31A7006E007F10803DB
:10338000104A07CA03C31A7000BFFB791B01DBB2E6
:10339000673B7B757B7D99B2FB8A07F108020A487F
:1033A000019000200090CD20FEF7C4F900BF18372F
:1033B000BD4680BD989B0008A49B0008B09B0008F8
:1033C000BC9B0008C89B00085CA9000880B584B0BD
:1033D00000AF0346FB71094B1B781A46084B9B5CF8
:1033E000FB73FA79FB7B9A4204D2FB7900211846E1
:1033F00000F008F800BF1037BD4680BDFD05002075
:103400000400002080B584B000AF03460A46FB717B
:103410001346BB710023FB732AE0194B1B7803F0A2
:103420000F03BB73FB7B012202FA03F35AB297F935
:103430000E3013405BB2BB73BB7B002B15D0BB7946
:10344000002B09D0FB7B0F4A32F81320F97BFB7964
:10345000184600F01BF808E0FB7B0B4A32F81320FB
:10346000F97BFB79184600F011F8FB7B0133FB7305
:10347000FB7B032BD1D900BF00BF1037BD4680BDF9
:10348000980200202C0000202400002080B588B085
:1034900002AF0346FB710B46BB711346BB808B2307
:1034A0007B82FFF773FC5A4B1B78002B09D0584BDB
:1034B00000221A70FFF768FBFFF7EEFC00F008F936
:1034C000A1E0544B1B781A46534B9B5CFA7902FBE4
:1034D00003F3DBB220337B74FB79002B03D0FB7941
:1034E000013BFB7506E04B4B1B781A464B4B9B5C34
:1034F000013BFB75FA79BB79494992000A441344B0
:103500001B78BB75FA7DBB79454992000A44134488
:103510001B787B75434B1B78012B03D9424B1B78DF
:10352000002B05D0BB7D5B00BB757B7D5B007B7595
:103530003D4B1B78012B01D1DB237B823A4B1B785F
:10354000022B02D140F203137B827B8ADAB2BB7D6D
:10355000D31A3B747B8ADAB27B7DD31AFB733A7C35
:10356000FB7B9A4204D9FA7B3B7CD31ABB7303E002
:103570003A7CFB7BD31ABB73FA7B3B7CD31ABB73BD
:103580003B7C952B3FD8FB7B952B3CD8BB7B012B01
:103590000BD97B7C98B23B7C99B2FB7B9AB2BB88FF
:1035A00000930123FEF789FB07E07B7C9BB23A7C0A
:1035B00091B2BA881846FEF7BFFB164B1B78012B59
:1035C00009D87B7C9BB201339BB23A7C91B2BA881A
:1035D0001846FEF7B1FB0F4B1B78002B13D17B7CF9
:1035E0009BB202339BB23A7C91B2BA881846FEF77E
:1035F000A3FB7B7C9BB203339BB23A7C91B2BA882B
:103600001846FEF799FB00BF1837BD4680BD00BFC6
:1036100028060020FD0500201000002004000020E6
:103620005C030020170000200206002080B586B051
:1036300002AF0346FB71FB799BB21A46D2001A44D3
:10364000520013445B009BB20333FB81F9890023D2
:1036500000931E236E22CE20FEF722FA00BF103701
:10366000BD4680BD80B500AFFFF790FB00F002F8CB
:1036700000BF80BD80B582B000AF114B1B781A46E9
:10368000104B9B5CBB71FFF707FC0F4B1B78002BAB
:103690000ED00023FB7107E0FB7901211846FFF7EC
:1036A000B1FEFB790133FB71FA79BB799A42F3D30E
:1036B000064B00221A7000BF0837BD4680BD00BF10
:1036C000FD0500200400002022060020F80500204F
:1036D00080B582B000AF0023FB7107E0FB790021C9
:1036E0001846FFF78FFEFB790133FB71044B1B7803
:1036F000FA799A42F2D900BF00BF0837BD4680BDB3
:10370000F80500200000000080B584B002AF00235F
:10371000FB71D0E0704B1B7803F00F03BB71FB799A
:10372000012202FA03F35AB297F9063013405BB252
:10373000BB71BB79002B00F0BB80FB791B01DBB2B6
:10374000563B7B71FA79654913465B0013445B0075
:103750000B44B3F900301846FCF754FE5AA3D3E9E2
:103760000023FCF7B9FE02460B461046194658A343
:10377000D3E90023FCF7DAFF02460B461046194650
:10378000FDF782F90346564A1360554B1B681846ED
:10379000FCF74AFE02460B465249534804F068F8CB
:1037A0007B7999B2FB79514A32F81330504A019231
:1037B000002200924C4A0D20FDF7BCFFFA794749E0
:1037C00013465B0013445B000B440233B3F9003033
:1037D0001846FCF717FE3CA3D3E90023FCF77CFE58
:1037E00002460B461046194639A3D3E90023FCF7DD
:1037F0009DFF02460B4610461946FDF745F9034664
:10380000374A1360364B1B681846FCF70DFE02461C
:103810000B463449344804F02BF87B7999B2FB7994
:10382000324A32F81330324A0192002200922E4A74
:103830004F20FDF77FFFFA79284913465B001344B8
:103840005B000B440433B3F900301846FCF7DAFD93
:103850001DA3D3E90023FCF73FFE02460B461046AA
:1038600019461BA3D3E90023FCF760FF02460B4671
:1038700010461946FDF708F90346194A1360184B1C
:103880001B681846FCF7D0FD02460B461549164842
:1038900003F0EEFF7B7999B2FB79144A32F81330CA
:1038A000134A0192002200920F4A9320FDF742FF33
:1038B000FB790133FB71FB79032B7FF62BAF00BF44
:1038C00000BF0837BD4680BD6666666666660A400C
:1038D0000000000000FEAF409802002044030020DA
:1038E000EC050020D49B0008DC050020240000200B
:1038F000A0B1000880B584B000AF0023FB7395E051
:10390000FB7B184600F008F90346BB81FA7B4C4963
:1039100013465B0013445B000B44B3F900307B811A
:103920007B89002B10D0BA897B891344DA0F1344AA
:103930005B10FA7B18B2424913465B0013445B00EC
:103940000B4402461A800AE0FA7BB7F90C003C49A6
:1039500013465B0013445B000B4402461A80FB7B5A
:10396000184600F041F903463B81FA7B344913467F
:103970005B0013445B000B440233B3F900307B81DE
:103980007B89002B11D03A897B891344DA0F1344C9
:103990005B10FA7B18B22A4913465B0013445B00A4
:1039A0000B44023302461A800BE0FA7BB7F9080099
:1039B000234913465B0013445B000B440233024669
:1039C0001A80FB7B184600F0DFF80346FB80FA7B89
:1039D0001B4913465B0013445B000B440433B3F9EB
:1039E00000307B817B89002B11D0FA887B891344BE
:1039F000DA0F13445B10FA7B18B2114913465B00CF
:103A000013445B000B44043302461A800BE0FA7B3C
:103A1000B7F906000A4913465B0013445B000B44E8
:103A2000043302461A80FB7B0133FB73FB7B032BC1
:103A30007FF666AF00BF00BF1037BD4680BD00BF38
:103A40004403002080B588B002AF03460A46FB71EC
:103A50001346BB71BB79002B0BD007F10C03284A2E
:103A600092E8030018600433198002330A0C1A70BC
:103A700007E007F10C03234A92E8030018600433BF
:103A80001980214B1B781B01DBB2563BDAB21F4B6E
:103A90001A701E4B1B781846FB791D4A32F81330FA
:103AA00007F10C021B4901910021009101460D20F4
:103AB000FDF740FE154B1B781846FB79144A32F887
:103AC000133007F10C0213490191002100910146C6
:103AD0004F20FDF72FFE0D4B1B781846FB790C4A43
:103AE00032F8133007F10C020A49019100210091CC
:103AF00001469320FDF71EFE00BF1837BD4680BD6E
:103B0000DC9B0008E49B0008F0050020FB0500207A
:103B1000240000205CA9000880B485B000AF0346F3
:103B2000FB71FA79174913469B001344DB000B44E1
:103B30001B88FB8101237B731AE0FA79797B11489A
:103B400013469B0013445B000B4430F82330FA8982
:103B50009A420AD9FA79797B0A4813469B001344A2
:103B60005B000B4430F82330FB817B7B01337B739C
:103B70007B7B082BE1D9FB8918461437BD4680BCF6
:103B8000704700BFA402002080B485B000AF034698
:103B9000FB710023FB8100237B731AE0FA79797BA8
:103BA000104813469B0013445B000B4430F823304D
:103BB000FA899A420AD2FA79797B0A4813469B001D
:103BC00013445B000B4430F82330FB817B7B0133D3
:103BD0007B737B7B082BE1D9FB8918461437BD46E4
:103BE00080BC7047A402002080B485B000AF0346BB
:103BF000FB710023FB600023FB7210E0FA79F97A75
:103C00000E4813469B0013445B000B4430F82330EE
:103C10001A46FB681344FB60FB7A0133FB72FB7AA4
:103C2000082BEBD9FB68064AA2FB03235B083B8108
:103C30003B8918461437BD4680BC7047A40200205B
:103C4000398EE33880B584B002AF784B1B78002BF7
:103C500000F08B80764B00221A70764B1B78032B7A
:103C600077D8754B1B785AB2724B1B7819460123D3
:103C70008B405BB253405BB2DAB26F4B1A706E4B43
:103C80001B781A466B4B1B78194601238B40134057
:103C9000002B14BF01230023FB71FB7983F0010388
:103CA000DBB2002B0BD0634B1B781846FFF7BEFC32
:103CB000604B1B7800211846FFF7C4FE2AE05F4BDB
:103CC0001B7883F00103DBB2002B23D0594B1B7808
:103CD0001A46D2001A44520013445B00DBB206338A
:103CE000DAB2574B1A70564B1B781946514B1B785A
:103CF0001A46544B33F81230534A01920022009274
:103D0000524AE620FDF716FD4A4B1B780121184662
:103D1000FFF798FE484B1B7803F00F03002B24D1CC
:103D20004B4B00221A704A4B1B781A4649494A48A5
:103D300003F09EFD444B0193002300934FF6FF7365
:103D4000454A9A214FF48570FDF7F4FCFEF71CFFFD
:103D50000BE0424B01221A70414B00221A70404B7B
:103D60001B7801211846FFF7BFFA304B1B7883F010
:103D70000103DBB2002B3FD03A4B1B78002B1BD04A
:103D80002C4B1B78032B0AD82A4B1A78364B1A7007
:103D9000284B1B780133DAB2264B1A7006E0254B0C
:103DA0001A78314B1A70234B00221A702D4B0022C7
:103DB0001A702E4B01221A702D4B1B78002B1BD032
:103DC0001C4B1B78002B0AD01A4B1A78264B1A7002
:103DD000184B1B78013BDAB2164B1A7006E0154BF4
:103DE0001A78214B1A70134B04221A70204B0022B0
:103DF0001A701E4B01221A700C4B00221A701B4BBA
:103E00001B78002B0ED00B4B1B7801211846FEF7B8
:103E100089FE154B1B7800211846FEF783FE134BD5
:103E200000221A7000BF0837BD4680BD1D06002065
:103E30001C060020F005002098020020200600202B
:103E4000FB050020240000205CA90008009B00085E
:103E5000F8050020EC9B0008DC050020230600206C
:103E6000F405002018060020F10500201B060020A4
:103E70001906002080B500AF3A4B1B78002B11D0FB
:103E8000394B00221A70394B1B7802211846FFF774
:103E90002BFA374B00221A70364B01221A70364B20
:103EA00000221A702F4B1B7883F00103DBB2002B2A
:103EB0003FD0324B1B78002B1BD02C4B1B78032B95
:103EC0000AD82A4B1A782E4B1A70284B1B780133CC
:103ED000DAB2264B1A7006E0244B1A78284B1A7077
:103EE000224B00221A70254B00221A70254B01220A
:103EF0001A70254B1B78002B1BD01C4B1B78002BFA
:103F00000AD01A4B1A781E4B1A70184B1B78013BBB
:103F1000DAB2164B1A7006E0144B1A78184B1A7066
:103F2000124B04221A70184B00221A70154B0122F2
:103F30001A700C4B00221A70124B1B78002B0ED0FB
:103F40000A4B1B7801211846FFF7CEF90C4B1B7862
:103F500000211846FFF7C8F90A4B00221A7000BF6B
:103F600080BD00BF1D0600201C060020F4050020B7
:103F70001A06002024060020230600201806002030
:103F8000F50500201B0600201906002080B582B030
:103F900000AF604B1B781A465F4B9B5CFB715F4B1D
:103FA0001B7883F00103DBB2002B32D0594B1B7816
:103FB000042B2BD801A252F823F000BFD13F0008F8
:103FC000E33F0008ED3F0008F73F0008014000080C
:103FD000534B1B78C3F30113DBB21A46514B1A70D3
:103FE00014E0514B1A784F4B1A700FE04F4B1A7870
:103FF0004C4B1A700AE04E4B1A784A4B1A7005E087
:104000004C4B1B781A46474B1A7000BF434B01229A
:104010001A70494B1B78002B19D0484B00221A709C
:104020003C4B1B783F4A127811461846FEF720FE9B
:10403000384B1B7800211846FFF756F9404B0022F9
:104040001A70404B00221A70344B00221A703A4BFF
:104050001B7883F00103DBB2002B40D03A4B1B7876
:10406000002B1CD02F4B1B78FA799A420AD92D4B82
:104070001A78364B1A702B4B1B780133DAB2294B66
:104080001A7006E0274B1A78304B1A70254B002225
:104090001A702D4B00221A702D4B01221A702D4BD5
:1040A0001B78002B1BD01F4B1B78002B0AD01D4BFD
:1040B0001A78264B1A701B4B1B78013BDAB2194B4E
:1040C0001A7006E0174B1A78204B1A70154AFB79C4
:1040D0001370204B00221A701D4B01221A70164BD0
:1040E00000221A701A4B1B78002B0AD0094B1B7840
:1040F0000C4A127811461846FEF784FD144B002234
:104100001A70084B1A78114B1A7000BF0837BD4659
:1041100080BD00BFF4050020080000201A06002022
:1041200098020020F6050020FC050020FD05002077
:1041300001060020220600201D0600201C0600208B
:10414000230600202406002018060020F705002082
:104150001B0600201906002080B582B000AF0023A6
:10416000FB71464B1B780233FB70454B1B78002BD1
:104170004BD10023BB7107E0BB79424A002122F8F2
:104180001310BB790133BB71BB79032BF4D93CE02D
:1041900004223D493D4800F019FD0346002B34D16F
:1041A000052000F017FC00237B7128E0384B1B78BA
:1041B00003F00F03DAB2374B1A707B79012202FA4F
:1041C00003F35AB2334B1B785BB213405BB2DAB2E3
:1041D000304B1A702F4B1B78002B0DD07B79294A5E
:1041E00032F813107B79284A32F813207B790A447D
:1041F00091B2244A22F813107B7901337B717B79C9
:10420000032BD3D9FB790133FB71FA79FB789A42FE
:10421000BED300233B7128E03B791A4A32F81330B1
:10422000002B1FD0164B1B78002B0DD13B79154A64
:1042300032F813301A46FB7892FBF3F23B7991B2D5
:10424000104A22F813100DE03B790E4A32F8133071
:104250001A46FB78013392FBF3F23B7991B2094A9B
:1042600022F813103B7901333B713B79032BD3D9EF
:1042700000BF00BF0837BD4680BD00BF010600205B
:10428000F80500200C0600209C02002024020020DB
:1042900098020020FA05002090B585B002AF804B4F
:1042A00000221A70FFF758FF7E4B1B78002B06D1B7
:1042B0007D4B1A887D4B1A807D4B00221A8000238B
:1042C000FB71A3E07B4B1B7803F00F03DAB27A4B50
:1042D0001A70FB79012202FA03F35AB2764B1B786B
:1042E0005BB213405BB2DAB2734B1A70724B1B783D
:1042F000002B00F08880FB79FA79704909780C4628
:10430000694931F813006E4913469B0013445B0062
:104310002344024621F82320FB79634A32F8132014
:10432000624B1B889A4205D2FB795F4A32F8132010
:104330005E4B1A80FB795C4A32F813205C4B1B8879
:104340009A4205D9FB79584A32F81320584B1A8003
:10435000FB79554A32F813205A4BA3FB0213D21AA9
:10436000520813441B0999B24E4B1B781A46FB792D
:10437000C8B2554992000A44134402461A70FB79A8
:10438000494A32F813301846FCF73CF840A3D3E909
:104390000023FCF7A1F802460B46104619463EA33F
:1043A000D3E90023FCF7C2F902460B461046194632
:1043B000FCF76AFB0346454A1360FB791A46D200B4
:1043C0001A44520013445B00DBB20433DAB2404BB0
:1043D0001A703E4B1B681846FCF726F802460B463F
:1043E0003C493D4803F044FA394B1B781946FB79A8
:1043F0003A4A32F813303A4A019200220092364A81
:10440000E620FDF797F9FB790133FB71FB79032B6C
:104410007FF658AF294B1B780133DAB2274B1A705D
:10442000264B1B78082B06D9FFF764FAFFF76CF9C7
:10443000224B00221A702B4B4FF400725A61194B19
:104440001B7801331A462849234803F011FA274BF9
:104450000193002300934FF6FF731F4A0121A02010
:10446000FDF768F90F4B1B781846FEF7AFFF1D4BA1
:104470004FF400721A610B4B1B780133DAB2094B0F
:104480001A7000BF0C37BD4690BD00BFAFF300806F
:104490006666666666660A400000000000FEAF4081
:1044A00025060020F80500200C0600200406002048
:1044B0000606002098020020FA050020F9050020D9
:1044C000A4020020851042085C030020EC050020B7
:1044D000FB050020F09B0008DC05002024000020E4
:1044E00068B9000800080140F89B0008E8AC000823
:1044F00080B400AF72B600BF00BFFDE780B485B0E6
:1045000000AF154B9B69144A43F001039361124BB2
:104510009B6903F00103BB60BB680F4BDB690E4A6C
:1045200043F08053D3610C4BDB6903F080537B6015
:104530007B680A4B5B68FB60FB6823F0E063FB6011
:10454000FB6843F00073FB60044AFB68536000BFE4
:104550001437BD4680BC7047001002400000014087
:1045600080B400AF00BFFDE780B400AF00BFFDE73F
:1045700080B400AF00BFFDE780B400AF00BFFDE72F
:1045800080B400AF00BFFDE780B400AF00BFBD4600
:1045900080BC704780B400AF00BFBD4680BC704790
:1045A00080B400AF00BFBD4680BC704780B500AF8F
:1045B00000F0F4F9FEF798F900BF80BD80B500AFB8
:1045C000024801F06DF800BF80BD00BF540200201A
:1045D00080B500AF202001F033FB4FF4807001F074
:1045E0002FFB00BF80BD000080B500AF034802F084
:1045F000F7F9FEF73FF900BF80BD00BF300600208D
:1046000080B400AF01231846BD4680BC704780B51A
:1046100082B000AF7860396003F0E2F903461622F9
:104620001A604FF0FF3318460837BD4680BD80B58D
:1046300082B000AF78604FF0FF317868FFF7E7FF96
:1046400000BFFDE780B586B000AFF860B9607A6062
:1046500000237B610AE0AFF300800146BB685A1C6F
:10466000BA60CAB21A707B6901337B617A697B6870
:104670009A42F0DB7B6818461837BD4680BD80B58E
:1046800086B000AFF860B9607A6000237B6109E012
:10469000BB685A1CBA601B781846AFF300807B6970
:1046A00001337B617A697B689A42F1DB7B6818464B
:1046B0001837BD4680BD80B483B000AF78604FF03E
:1046C000FF3318460C37BD4680BC704780B483B0BA
:1046D00000AF786039603B684FF400525A600023A5
:1046E00018460C37BD4680BC704780B483B000AF1D
:1046F0007860012318460C37BD4680BC704780B4F3
:1047000085B000AFF860B9607A60002318461437AE
:10471000BD4680BC7047000080B586B000AF7860B1
:10472000144A154BD31A7B617B693B61134B1B68A1
:10473000002B02D1114B124A1A60104B1A687B6889
:1047400013443A699A4207D203F04AF903460C220D
:104750001A604FF0FF3309E0084B1B68FB60074B02
:104760001A687B681344054A1360FB6818461837BB
:10477000BD4680BD00500020000400002C06002033
:10478000C807002080B400AF00BFBD4680BC7047A2
:1047900080B58CB000AF07F10C032422002118462D
:1047A00003F0CBF83B1D00221A605A60204B214ACF
:1047B0001A601F4B00225A601D4B00229A601C4B4E
:1047C0004FF6FF72DA601A4B00221A61184B002272
:1047D0009A610123FB6000233B6101237B6100237D
:1047E000BB610023FB6100233B6201237B6200234A
:1047F000BB620023FB6207F10C0319460C4801F071
:104800009FFF0346002B01D0FFF772FE00237B6061
:104810000023BB603B1D1946054802F09DFA034684
:10482000002B01D0FFF764FE00BF3037BD4680BDCE
:10483000300600200004004080B588B000AF7860EA
:1048400007F1100300221A605A609A60DA607B68F0
:104850001B68194A93422BD1184BDB69174A43F066
:104860000203D361154BDB6903F00203FB60FB68B5
:10487000124B9B69114A43F0040393610F4B9B69F0
:1048800003F00403BB60BB68C0233B6100237B6172
:104890000123BB6107F110031946094801F034F800
:1048A000002200211D2000F00AFE1D2000F023FE42
:1048B00000BF2037BD4680BD00040040001002400C
:1048C00000080140FFF75EFF0B480C490C4A00232B
:1048D00002E0D458C4500433C4188C42F9D3094AB6
:1048E000094C002301E013600432A242FBD303F021
:1048F0007DF8FDF7B1FD70470000002008020020A0
:1049000034BD000808020020C8070020FEE70000B0
:1049100080B500AF084B1B68074A43F010031360D3
:10492000032000F0C1FD0F2000F008F8FFF7E6FDBE
:104930000023184680BD00BF0020024080B582B031
:1049400000AF7860124B1A68124B1B7819464FF46F
:104950007A73B3FBF1F3B2FBF3F3184600F0D9FD21
:104960000346002B01D001230EE07B680F2B0AD8F1
:10497000002279684FF0FF3000F0A1FD064A7B6805
:104980001360002300E0012318460837BD4680BDB0
:10499000340000203C0000203800002080B400AF2C
:1049A000054B1B781A46054B1B681344034A1360DA
:1049B00000BFBD4680BC70473C0000207806002048
:1049C00080B400AF024B1B681846BD4680BC7047E0
:1049D0007806002080B584B000AF7860FFF7F0FF64
:1049E000B8607B68FB60FB68B3F1FF3F05D00A4B02
:1049F0001B781A46FB681344FB6000BFFFF7E0FF1B
:104A00000246BB68D31AFA689A42F7D800BF00BFC3
:104A10001037BD4680BD00BF3C00002080B586B089
:104A200000AF78600023FB7500233B610023BB606F
:104A30000023FB607B68002B01D10123BEE07B6873
:104A40009B68002B7B689B6A002B09D17B68002246
:104A5000DA627B68002283F824207868FCF72CFB5C
:104A6000786800F0FFFA0346FB757B689B6A03F0E9
:104A70001003002B40F09980FB7D002B40F09580C7
:104A80007B689B6A23F4885323F0020343F00202FD
:104A90007B689A627B685A687B68DB691A437B682B
:104AA0001B7B5B001343BA681343BB607B689B6846
:104AB000B3F5807F03D07B689B68012B02D14FF454
:104AC000807300E000233A6913433B617B681B7DE0
:104AD000012B19D17B681B7B002B09D17B689B695B
:104AE000013B5A033B69134343F400633B610BE012
:104AF0007B689B6A43F020027B689A627B68DB6A72
:104B000043F001027B68DA627B681B685B6823F410
:104B100069417B681B683A690A435A607B681B6875
:104B20009A68284B13407A681268B9680B439360FF
:104B30007B689B68B3F5807F03D07B689B68012B03
:104B400004D17B681B69013B1B05FB607B681B680C
:104B5000DB6A23F470017B681B68FA680A43DA6237
:104B60007B681B689A68184B1340BA689A420BD14D
:104B70007B680022DA627B689B6A23F0030343F0C0
:104B800001027B689A6218E07B689B6A23F012033B
:104B900043F010027B689A627B68DB6A43F0010293
:104BA0007B68DA620123FB7507E07B689B6A43F050
:104BB00010027B689A620123FB75FB7D184618374B
:104BC000BD4680BDFDF7E1FFFE0E1FFF80B586B03C
:104BD00000AFF860B9607A600023FB75FB681B6862
:104BE000644A934204D0FB681B68634A934206D12F
:104BF000604B5B6803F47023002B40F0B380FB68CC
:104C000093F82430012B01D10223AEE0FB6801228E
:104C100083F82420F86800F0CBF90346FB75FB7D90
:104C2000002B40F09A80FB689B6A23F4706323F0AA
:104C3000010343F48072FB689A62FB681B684E4A6A
:104C4000934205D14B4B5B6803F47023002B15D1C5
:104C5000FB689B6A23F48012FB689A62FB681B68FE
:104C60005B6803F48063002B26D0FB689B6A23F407
:104C7000405343F48052FB689A621DE0FB689B6AD4
:104C800043F48012FB689A62FB681B68394A9342BE
:104C900004D0FB681B68384A93420DD1354B5B68E2
:104CA00003F48063002B07D0FB689B6A23F4405316
:104CB00043F48052FB689A62FB689B6A03F480535A
:104CC000002B06D0FB68DB6A23F00602FB68DA6281
:104CD00002E0FB680022DA62FB68002283F82420ED
:104CE000FB681B6A254A9A62FB681B6A244ADA62DF
:104CF000FB681B6A234A1A63FB681B686FF0020299
:104D00001A60FB681B689A68FB681B6842F4807233
:104D10009A60FB68186AFB681B684C331946BA68CE
:104D20007B6800F05DFCFB681B689B6803F46023F4
:104D3000B3F5602F08D1FB681B689A68FB681B6895
:104D400042F4A0029A600FE0FB681B689A68FB6857
:104D50001B6842F480129A6006E0FB68002283F828
:104D6000242001E00123FB75FB7D18461837BD4662
:104D700080BD00BF0024014000280140E75000082A
:104D8000635100087F51000880B483B000AF7860A1
:104D900000BF0C37BD4680BC704780B483B000AF05
:104DA000786000BF0C37BD4680BC704780B483B0CC
:104DB00000AF786000BF0C37BD4680BC7047000074
:104DC00080B485B000AF786039600023FB730023A6
:104DD000BB607B6893F82430012B01D10223DCE017
:104DE0007B68012283F824203B685B68062B1CD873
:104DF0007B681B68596B3B685A6813469B001344D9
:104E0000053B1F2202FA03F3DB4319403B68186895
:104E10003B685A6813469B001344053B00FA03F2B3
:104E20007B681B680A435A633CE03B685B680C2B59
:104E30001CD87B681B68196B3B685A6813469B003B
:104E40001344233B1F2202FA03F3DB4319403B6860
:104E500018683B685A6813469B001344233B00FACA
:104E600003F27B681B680A431A631BE07B681B68BC
:104E7000D96A3B685A6813469B001344413B1F2282
:104E800002FA03F3DB4319403B6818683B685A6831
:104E900013469B001344413B00FA03F27B681B68F6
:104EA0000A43DA623B681B68092B1CD97B681B68C4
:104EB000D9683B681A6813465B0013441E3B0722FF
:104EC00002FA03F3DB4319403B6898683B681A68B1
:104ED00013465B0013441E3B00FA03F27B681B6819
:104EE0000A43DA6019E07B681B6819693B681A6835
:104EF00013465B001344072202FA03F3DB43194015
:104F00003B6898683B681A6813465B00134400FAD4
:104F100003F27B681B680A431A613B681B68102B0D
:104F200003D03B681B68112B32D17B681B681D4A7C
:104F3000934225D17B681B689B6803F40003002B18
:104F400026D17B681B689A687B681B6842F4000264
:104F50009A603B681B68102B1AD1134B1B68134ACD
:104F6000A2FB03239A0C13469B0013445B00BB6017
:104F700002E0BB68013BBB60BB68002BF9D107E0D6
:104F80007B689B6A43F020027B689A620123FB7373
:104F90007B68002283F82420FB7B18461437BD462B
:104FA00080BC7047002401403400002083DE1B4396
:104FB00080B584B000AF78600023FB600023BB6045
:104FC0007B681B689B6803F00103012B40D07B6862
:104FD0001B689A687B681B6842F001029A601F4B4D
:104FE0001B681F4AA2FB03239B0CBB6002E0BB684B
:104FF000013BBB60BB68002BF9D1FFF7E1FCF86017
:105000001FE0FFF7DDFC0246FB68D31A022B18D91C
:105010007B681B689B6803F00103012B11D07B6840
:105020009B6A43F010027B689A627B68DB6A43F0FC
:1050300001027B68DA627B68002283F82420012366
:1050400007E07B681B689B6803F00103012BD8D144
:10505000002318461037BD4680BD00BF3400002035
:1050600083DE1B4380B584B000AF78600023FB6013
:105070007B681B689B6803F00103012B2ED17B68C2
:105080001B689A687B681B6822F001029A60FFF730
:1050900097FCF8601BE0FFF793FC0246FB68D31A0D
:1050A000022B14D97B681B689B6803F00103012B5A
:1050B0000DD17B689B6A43F010027B689A627B6823
:1050C000DB6A43F001027B68DA62012307E07B6858
:1050D0001B689B6803F00103012BDCD000231846FA
:1050E0001037BD4680BD80B584B000AF78607B6866
:1050F0005B6AFB60FB689B6A03F05003002B27D1BF
:10510000FB689B6A43F40072FB689A62FB681B6849
:105110009B6803F46023B3F5602F15D1FB681B7BFC
:10512000002B11D1FB689B6A23F48072FB689A62A2
:10513000FB689B6A03F48053002B05D1FB689B6AD4
:1051400043F00102FB689A62F868FFF71DFE04E075
:10515000FB681B6A1B6B7868984700BF1037BD4619
:1051600080BD80B584B000AF78607B685B6AFB600F
:10517000F868FFF712FE00BF1037BD4680BD80B54E
:1051800084B000AF78607B685B6AFB60FB689B6AF9
:1051900043F04002FB689A62FB68DB6A43F004025A
:1051A000FB68DA62F868FFF701FE00BF1037BD4602
:1051B00080BD000090B587B000AF78600023FB751C
:1051C0000023FB607B6893F82430012B01D102237C
:1051D00097E07B68012283F824207868FFF742FF7C
:1051E0000346FB757868FFF7E3FE0346FB75FB7D1E
:1051F000002B40F081807B689B6A23F4885323F066
:10520000020343F002027B689A62404B1C68022052
:1052100001F0E0F90346B4FBF3F35B00FB6002E04E
:10522000FB68013BFB60FB68002BF9D17B681B68C6
:105230009A687B681B6842F008029A60FFF7C0FB1F
:1052400038611BE0FFF7BCFB02463B69D31A0A2B0F
:1052500014D97B681B689B6803F00803002B0DD0F2
:105260007B689B6A23F0120343F010027B689A620A
:105270007B68002283F82420012342E07B681B68BE
:105280009B6803F00803002BDCD17B681B689A68DD
:105290007B681B6842F004029A60FFF791FB38615B
:1052A0001BE0FFF78DFB02463B69D31A0A2B14D98A
:1052B0007B681B689B6803F00403002B0DD07B68A0
:1052C0009B6A23F0120343F010027B689A627B68AA
:1052D000002283F82420012313E07B681B689B686D
:1052E00003F00403002BDCD17B689B6A23F00303EB
:1052F00043F001027B689A627B68002283F82420D5
:10530000FB7D18461C37BD4690BD00BF3400002011
:1053100080B485B000AF78607B6803F00703FB6062
:105320000C4BDB68BB60BA684FF6FF031340BB60F1
:10533000FB681A02BB68134343F0BF6343F40033B6
:10534000BB60044ABB68D36000BF1437BD4680BC55
:10535000704700BF00ED00E080B400AF044BDB6895
:105360001B0A03F007031846BD4680BC704700BF08
:1053700000ED00E080B483B000AF0346FB7197F905
:105380000730002B0BDBFB7903F01F02064997F96E
:1053900007305B09012000FA02F241F8232000BF28
:1053A0000C37BD4680BC704700E100E080B483B09C
:1053B00000AF03463960FB7197F90730002B0ADB19
:1053C0003B68DAB20C4997F907301201D2B20B44AC
:1053D00083F800230AE03B68DAB20849FB7903F05E
:1053E0000F03043B1201D2B20B441A7600BF0C37F4
:1053F000BD4680BC704700BF00E100E000ED00E06A
:1054000080B489B000AFF860B9607A60FB6803F0DF
:105410000703FB61FB69C3F10703042B28BF0423C7
:10542000BB61FB690433062B02D9FB69033B00E037
:1054300000237B614FF0FF32BB6902FA03F3DA43CA
:10544000BB681A407B699A404FF0FF317B6901FAD3
:1054500003F3D9437B680B40134318462437BD46FA
:1054600080BC704780B582B000AF78607B68013B3C
:10547000B3F1807F01D301230FE00A4A7B68013B2F
:1054800053600F214FF0FF30FFF790FF054B0022D4
:105490009A60044B07221A60002318460837BD465D
:1054A00080BD00BF10E000E080B582B000AF786042
:1054B0007868FFF72DFF00BF0837BD4680BD80B577
:1054C00086B000AF0346B9607A60FB7300237B614E
:1054D000FFF742FF78617A68B9687869FFF790FF53
:1054E000024697F90F3011461846FFF75FFF00BFDD
:1054F0001837BD4680BD80B582B000AF0346FB7152
:1055000097F907301846FFF735FF00BF0837BD464B
:1055100080BD80B582B000AF78607868FFF7A2FFE9
:10552000034618460837BD4680BD000080B485B0EC
:1055300000AF78600023FB607B68002B01D1012362
:1055400043E07B681B681A46224B1344224AA2FBA5
:1055500003231B099A007B681A647B681F4ADA637D
:105560007B68022283F821207B681B681B68FB6034
:10557000FB6823F47F5323F03003FB607B685A6899
:105580007B689B681A437B68DB681A437B681B69EE
:105590001A437B685B691A437B689B691A437B6883
:1055A000DB691343FA681343FB607B681B68FA6886
:1055B0001A607B6800229A637B68012283F82120AD
:1055C0007B68002283F82020002318461437BD464C
:1055D00080BC7047F8FFFDBFCDCCCCCC00000240B2
:1055E00080B586B000AFF860B9607A603B60002398
:1055F000FB75FB6893F82030012B01D102234BE0AF
:10560000FB68012283F82020FB6893F82130DBB28D
:10561000012B3AD1FB68022283F82120FB6800228B
:105620009A63FB681B681A68FB681B6822F001021A
:105630001A603B687A68B968F86800F037F9FB6867
:10564000DB6A002B08D0FB681B681A68FB681B68C4
:1056500042F00E021A600FE0FB681B681A68FB68D4
:105660001B6822F004021A60FB681B681A68FB685A
:105670001B6842F00A021A60FB681B681A68FB6824
:105680001B6842F001021A6005E0FB68002283F803
:1056900020200223FB75FB7D18461837BD4680BDD0
:1056A00080B584B000AF78607B68DB6B1B68FB6003
:1056B0007B681B681B68BB607B681B6C04229A407C
:1056C000FB681340002B4FD0BB6803F00403002B92
:1056D0004AD07B681B681B6803F02003002B07D1AE
:1056E0007B681B681A687B681B6822F004021A60DA
:1056F0007B681B68664A934229D07B681B68654AB1
:10570000934222D07B681B68634A93421AD07B681D
:105710001B68624A934212D07B681B68604A9342BE
:105720000AD07B681B685F4A934202D14FF4800322
:105730000EE04FF080630BE04FF4802308E04FF45D
:10574000804305E04FF4806302E0402300E004233F
:10575000554A53607B68DB6A002B00F094807B68BD
:10576000DB6A786898478EE07B681B6C02229A405F
:10577000FB681340002B56D0BB6803F00203002BDC
:1057800051D07B681B681B6803F02003002B0BD1F2
:105790007B681B681A687B681B6822F00A021A6023
:1057A0007B68012283F821207B681B68384A93427A
:1057B00029D07B681B68374A934222D07B681B68DC
:1057C000354A93421AD07B681B68344A934212D000
:1057D0007B681B68324A93420AD07B681B68314A57
:1057E000934202D14FF400130EE04FF000730BE030
:1057F0004FF4003308E04FF4005305E04FF400731A
:1058000002E0202300E00223274A53607B68002245
:1058100083F820207B689B6A002B34D07B689B6ACE
:10582000786898472FE07B681B6C08229A40FB68D9
:105830001340002B28D0BB6803F00803002B23D0B3
:105840007B681B681A687B681B6822F00E021A606E
:105850007B681A6C7B68DB6B012101FA02F25A60EB
:105860007B6801229A637B68012283F821207B6890
:10587000002283F820207B681B6B002B04D07B6800
:105880001B6B7868984700BF00BF1037BD4680BDCE
:10589000080002401C000240300002404400024068
:1058A000580002406C0002400000024080B485B005
:1058B00000AFF860B9607A603B60FB681A6CFB6807
:1058C000DB6B012101FA02F25A60FB681B683A683F
:1058D0005A60FB685B68102B08D1FB681B687A680C
:1058E0009A60FB681B68BA68DA6007E0FB681B68AF
:1058F000BA689A60FB681B687A68DA6000BF143780
:10590000BD4680BC7047000080B48BB000AF7860AB
:10591000396000237B6200233B6269E101227B6ADC
:1059200002FA03F3FB613B681B68FA691340BB6131
:10593000BA69FB699A4240F058813B685B689A4AB1
:1059400093425ED0984A934275D8984A934258D071
:10595000964A93426FD8964A934252D0944A9342C1
:1059600069D8944A93424CD0924A934263D8924A5F
:10597000934246D0904A93425DD8122B2AD8122BDC
:1059800059D801A252F823F0035A0008DD59000843
:10599000EF590008315A0008375A0008375A0008F2
:1059A000375A0008375A0008375A0008375A000893
:1059B000375A0008375A0008375A0008375A000883
:1059C000375A0008375A0008375A0008E5590008C6
:1059D000F9590008794A934213D02CE03B68DB6800
:1059E0003B6229E03B68DB6804333B6224E03B68B0
:1059F000DB6808333B621FE03B68DB680C333B62CB
:105A00001AE03B689B68002B02D104233B6213E041
:105A10003B689B68012B05D108233B627B68FA69D0
:105A20001A6109E008233B627B68FA695A6103E066
:105A300000233B6200E000BFBB69FF2B01D87B68FD
:105A400001E07B6804337B61BB69FF2B02D87B6A72
:105A50009B0002E07B6A083B9B003B617B691A6804
:105A60000F213B6901FA03F3DB431A40396A3B69B2
:105A700001FA03F31A437B691A603B685B6803F021
:105A80008053002B00F0B1804D4B9B694C4A43F092
:105A9000010393614A4B9B6903F00103BB60BB6840
:105AA000484A7B6A9B08023352F82330FB607B6ACA
:105AB00003F003039B000F2202FA03F3DB43FA68AF
:105AC0001340FB607B68404A934213D07B683F4A97
:105AD00093420DD07B683E4A934207D07B683D4A93
